{"contracts/HelloSmartContract.sol":{"HelloSmartContract":{"abi":[{"inputs":[],"stateMutability":"nonpayable","type":"constructor"},{"inputs":[],"name":"retrieveWord","outputs":[{"internalType":"string","name":"","type":"string"}],"stateMutability":"view","type":"function"},{"inputs":[{"internalType":"string","name":"_word","type":"string"}],"name":"setWord","outputs":[],"stateMutability":"nonpayable","type":"function"}],"evm":{"bytecode":{"linkReferences":{},"object":"60808060405234610016576103f3908161001c8239f35b600080fdfe6080604090808252600436101561001557600080fd5b600090813560e01c908163857ff2c414610218575063cd048de61461003957600080fd5b34610215576020806003193601126102115760043567ffffffffffffffff9182821161020d573660238301121561020d578160040135948386116101f9575194601f199261008e8385601f850116018861034a565b81875236602483830101116101f5578186926024859301838a01378701015284519283116101e1576100c08454610383565b601f8111610180575b508091601f841160011461010457505082938293926100f9575b50506000198260011b9260031b1c191617815580f35b0151905038806100e3565b8480528316947f290decd9548b62a8d60345a988386fc84ba6bc95484008f6362f93160ef3e563929185905b87821061016857505083600195961061014f575b505050811b01815580f35b015160001960f88460031b161c19169055388080610144565b80600185968294968601518155019501930190610130565b8480527f290decd9548b62a8d60345a988386fc84ba6bc95484008f6362f93160ef3e563601f850160051c8101918386106101d7575b601f0160051c01905b8181106101cc57506100c9565b8581556001016101bf565b90915081906101b6565b602484634e487b7160e01b81526041600452fd5b8580fd5b602485634e487b7160e01b81526041600452fd5b8380fd5b5080fd5b80fd5b839150346103465782600319360112610346578254818461023883610383565b8083529260019081811690811561030657506001146102aa575b506102629250949294038461034a565b815192839160208084528251928382860152825b84811061029457505050828201840152601f01601f19168101030190f35b8181018301518882018801528795508201610276565b8680528691507f290decd9548b62a8d60345a988386fc84ba6bc95484008f6362f93160ef3e5635b8483106102eb5750610262935050810160200186610252565b819350908160209254838589010152019101909184926102d2565b602093506102629592507fffffffffffffffffffffffffffffffffffffffffffffffffffffffffffffff0091501682840152151560051b82010186610252565b8280fd5b90601f601f19910116810190811067ffffffffffffffff82111761036d57604052565b634e487b7160e01b600052604160045260246000fd5b90600182811c921680156103b3575b602083101461039d57565b634e487b7160e01b600052602260045260246000fd5b91607f169161039256fea2646970667358221220814494fd9fe09ce2e7b8508794d13f42d0cecde596cf733d08a0dd79b72ebdbe64736f6c63430008140033","opcodes":"PUSH1 0x80 DUP1 PUSH1 0x40 MSTORE CALLVALUE PUSH2 0x16 JUMPI PUSH2 0x3F3 SWAP1 DUP2 PUSH2 0x1C DUP3 CODECOPY RETURN JUMPDEST PUSH1 0x0 DUP1 REVERT INVALID PUSH1 0x80 PUSH1 0x40 SWAP1 DUP1 DUP3 MSTORE PUSH1 0x4 CALLDATASIZE LT ISZERO PUSH2 0x15 JUMPI PUSH1 0x0 DUP1 REVERT JUMPDEST PUSH1 0x0 SWAP1 DUP2 CALLDATALOAD PUSH1 0xE0 SHR SWAP1 DUP2 PUSH4 0x857FF2C4 EQ PUSH2 0x218 JUMPI POP PUSH4 0xCD048DE6 EQ PUSH2 0x39 JUMPI PUSH1 0x0 DUP1 REVERT JUMPDEST CALLVALUE PUSH2 0x215 JUMPI PUSH1 0x20 DUP1 PUSH1 0x3 NOT CALLDATASIZE ADD SLT PUSH2 0x211 JUMPI PUSH1 0x4 CALLDATALOAD PUSH8 0xFFFFFFFFFFFFFFFF SWAP2 DUP3 DUP3 GT PUSH2 0x20D JUMPI CALLDATASIZE PUSH1 0x23 DUP4 ADD SLT ISZERO PUSH2 0x20D JUMPI DUP2 PUSH1 0x4 ADD CALLDATALOAD SWAP5 DUP4 DUP7 GT PUSH2 0x1F9 JUMPI MLOAD SWAP5 PUSH1 0x1F NOT SWAP3 PUSH2 0x8E DUP4 DUP6 PUSH1 0x1F DUP6 ADD AND ADD DUP9 PUSH2 0x34A JUMP JUMPDEST DUP2 DUP8 MSTORE CALLDATASIZE PUSH1 0x24 DUP4 DUP4 ADD ADD GT PUSH2 0x1F5 JUMPI DUP2 DUP7 SWAP3 PUSH1 0x24 DUP6 SWAP4 ADD DUP4 DUP11 ADD CALLDATACOPY DUP8 ADD ADD MSTORE DUP5 MLOAD SWAP3 DUP4 GT PUSH2 0x1E1 JUMPI PUSH2 0xC0 DUP5 SLOAD PUSH2 0x383 JUMP JUMPDEST PUSH1 0x1F DUP2 GT PUSH2 0x180 JUMPI JUMPDEST POP DUP1 SWAP2 PUSH1 0x1F DUP5 GT PUSH1 0x1 EQ PUSH2 0x104 JUMPI POP POP DUP3 SWAP4 DUP3 SWAP4 SWAP3 PUSH2 0xF9 JUMPI JUMPDEST POP POP PUSH1 0x0 NOT DUP3 PUSH1 0x1 SHL SWAP3 PUSH1 0x3 SHL SHR NOT AND OR DUP2 SSTORE DUP1 RETURN JUMPDEST ADD MLOAD SWAP1 POP CODESIZE DUP1 PUSH2 0xE3 JUMP JUMPDEST DUP5 DUP1 MSTORE DUP4 AND SWAP5 PUSH32 0x290DECD9548B62A8D60345A988386FC84BA6BC95484008F6362F93160EF3E563 SWAP3 SWAP2 DUP6 SWAP1 JUMPDEST DUP8 DUP3 LT PUSH2 0x168 JUMPI POP POP DUP4 PUSH1 0x1 SWAP6 SWAP7 LT PUSH2 0x14F JUMPI JUMPDEST POP POP POP DUP2 SHL ADD DUP2 SSTORE DUP1 RETURN JUMPDEST ADD MLOAD PUSH1 0x0 NOT PUSH1 0xF8 DUP5 PUSH1 0x3 SHL AND SHR NOT AND SWAP1 SSTORE CODESIZE DUP1 DUP1 PUSH2 0x144 JUMP JUMPDEST DUP1 PUSH1 0x1 DUP6 SWAP7 DUP3 SWAP5 SWAP7 DUP7 ADD MLOAD DUP2 SSTORE ADD SWAP6 ADD SWAP4 ADD SWAP1 PUSH2 0x130 JUMP JUMPDEST DUP5 DUP1 MSTORE PUSH32 0x290DECD9548B62A8D60345A988386FC84BA6BC95484008F6362F93160EF3E563 PUSH1 0x1F DUP6 ADD PUSH1 0x5 SHR DUP2 ADD SWAP2 DUP4 DUP7 LT PUSH2 0x1D7 JUMPI JUMPDEST PUSH1 0x1F ADD PUSH1 0x5 SHR ADD SWAP1 JUMPDEST DUP2 DUP2 LT PUSH2 0x1CC JUMPI POP PUSH2 0xC9 JUMP JUMPDEST DUP6 DUP2 SSTORE PUSH1 0x1 ADD PUSH2 0x1BF JUMP JUMPDEST SWAP1 SWAP2 POP DUP2 SWAP1 PUSH2 0x1B6 JUMP JUMPDEST PUSH1 0x24 DUP5 PUSH4 0x4E487B71 PUSH1 0xE0 SHL DUP2 MSTORE PUSH1 0x41 PUSH1 0x4 MSTORE REVERT JUMPDEST DUP6 DUP1 REVERT JUMPDEST PUSH1 0x24 DUP6 PUSH4 0x4E487B71 PUSH1 0xE0 SHL DUP2 MSTORE PUSH1 0x41 PUSH1 0x4 MSTORE REVERT JUMPDEST DUP4 DUP1 REVERT JUMPDEST POP DUP1 REVERT JUMPDEST DUP1 REVERT JUMPDEST DUP4 SWAP2 POP CALLVALUE PUSH2 0x346 JUMPI DUP3 PUSH1 0x3 NOT CALLDATASIZE ADD SLT PUSH2 0x346 JUMPI DUP3 SLOAD DUP2 DUP5 PUSH2 0x238 DUP4 PUSH2 0x383 JUMP JUMPDEST DUP1 DUP4 MSTORE SWAP3 PUSH1 0x1 SWAP1 DUP2 DUP2 AND SWAP1 DUP2 ISZERO PUSH2 0x306 JUMPI POP PUSH1 0x1 EQ PUSH2 0x2AA JUMPI JUMPDEST POP PUSH2 0x262 SWAP3 POP SWAP5 SWAP3 SWAP5 SUB DUP5 PUSH2 0x34A JUMP JUMPDEST DUP2 MLOAD SWAP3 DUP4 SWAP2 PUSH1 0x20 DUP1 DUP5 MSTORE DUP3 MLOAD SWAP3 DUP4 DUP3 DUP7 ADD MSTORE DUP3 JUMPDEST DUP5 DUP2 LT PUSH2 0x294 JUMPI POP POP POP DUP3 DUP3 ADD DUP5 ADD MSTORE PUSH1 0x1F ADD PUSH1 0x1F NOT AND DUP2 ADD SUB ADD SWAP1 RETURN JUMPDEST DUP2 DUP2 ADD DUP4 ADD MLOAD DUP9 DUP3 ADD DUP9 ADD MSTORE DUP8 SWAP6 POP DUP3 ADD PUSH2 0x276 JUMP JUMPDEST DUP7 DUP1 MSTORE DUP7 SWAP2 POP PUSH32 0x290DECD9548B62A8D60345A988386FC84BA6BC95484008F6362F93160EF3E563 JUMPDEST DUP5 DUP4 LT PUSH2 0x2EB JUMPI POP PUSH2 0x262 SWAP4 POP POP DUP2 ADD PUSH1 0x20 ADD DUP7 PUSH2 0x252 JUMP JUMPDEST DUP2 SWAP4 POP SWAP1 DUP2 PUSH1 0x20 SWAP3 SLOAD DUP4 DUP6 DUP10 ADD ADD MSTORE ADD SWAP2 ADD SWAP1 SWAP2 DUP5 SWAP3 PUSH2 0x2D2 JUMP JUMPDEST PUSH1 0x20 SWAP4 POP PUSH2 0x262 SWAP6 SWAP3 POP PUSH32 0xFFFFFFFFFFFFFFFFFFFFFFFFFFFFFFFFFFFFFFFFFFFFFFFFFFFFFFFFFFFFFF00 SWAP2 POP AND DUP3 DUP5 ADD MSTORE ISZERO ISZERO PUSH1 0x5 SHL DUP3 ADD ADD DUP7 PUSH2 0x252 JUMP JUMPDEST DUP3 DUP1 REVERT JUMPDEST SWAP1 PUSH1 0x1F PUSH1 0x1F NOT SWAP2 ADD AND DUP2 ADD SWAP1 DUP2 LT PUSH8 0xFFFFFFFFFFFFFFFF DUP3 GT OR PUSH2 0x36D JUMPI PUSH1 0x40 MSTORE JUMP JUMPDEST PUSH4 0x4E487B71 PUSH1 0xE0 SHL PUSH1 0x0 MSTORE PUSH1 0x41 PUSH1 0x4 MSTORE PUSH1 0x24 PUSH1 0x0 REVERT JUMPDEST SWAP1 PUSH1 0x1 DUP3 DUP2 SHR SWAP3 AND DUP1 ISZERO PUSH2 0x3B3 JUMPI JUMPDEST PUSH1 0x20 DUP4 LT EQ PUSH2 0x39D JUMPI JUMP JUMPDEST PUSH4 0x4E487B71 PUSH1 0xE0 SHL PUSH1 0x0 MSTORE PUSH1 0x22 PUSH1 0x4 MSTORE PUSH1 0x24 PUSH1 0x0 REVERT JUMPDEST SWAP2 PUSH1 0x7F AND SWAP2 PUSH2 0x392 JUMP INVALID LOG2 PUSH5 0x6970667358 0x22 SLT KECCAK256 DUP2 PREVRANDAO SWAP5 REVERT SWAP16 0xE0 SWAP13 0xE2 0xE7 0xB8 POP DUP8 SWAP5 0xD1 EXTCODEHASH TIMESTAMP 0xD0 0xCE 0xCD 0xE5 SWAP7 0xCF PUSH20 0x3D08A0DD79B72EBDBE64736F6C63430008140033 "},"methodIdentifiers":{"retrieveWord()":"857ff2c4","setWord(string)":"cd048de6"}}}}}