{
  "_format": "hh-sol-artifact-1",
  "contractName": "HelloSmartContract",
  "sourceName": "contracts/HelloSmartContract.sol",
  "abi": [
    {
      "inputs": [],
      "stateMutability": "nonpayable",
      "type": "constructor"
    },
    {
      "inputs": [],
      "name": "retrieveWord",
      "outputs": [
        {
          "internalType": "string",
          "name": "",
          "type": "string"
        }
      ],
      "stateMutability": "view",
      "type": "function"
    },
    {
      "inputs": [
        {
          "internalType": "string",
          "name": "_word",
          "type": "string"
        }
      ],
      "name": "setWord",
      "outputs": [],
      "stateMutability": "nonpayable",
      "type": "function"
    }
  ],
  "bytecode": "0x60808060405234610016576103f3908161001c8239f35b600080fdfe6080604090808252600436101561001557600080fd5b600090813560e01c908163857ff2c414610218575063cd048de61461003957600080fd5b34610215576020806003193601126102115760043567ffffffffffffffff9182821161020d573660238301121561020d578160040135948386116101f9575194601f199261008e8385601f850116018861034a565b81875236602483830101116101f5578186926024859301838a01378701015284519283116101e1576100c08454610383565b601f8111610180575b508091601f841160011461010457505082938293926100f9575b50506000198260011b9260031b1c191617815580f35b0151905038806100e3565b8480528316947f290decd9548b62a8d60345a988386fc84ba6bc95484008f6362f93160ef3e563929185905b87821061016857505083600195961061014f575b505050811b01815580f35b015160001960f88460031b161c19169055388080610144565b80600185968294968601518155019501930190610130565b8480527f290decd9548b62a8d60345a988386fc84ba6bc95484008f6362f93160ef3e563601f850160051c8101918386106101d7575b601f0160051c01905b8181106101cc57506100c9565b8581556001016101bf565b90915081906101b6565b602484634e487b7160e01b81526041600452fd5b8580fd5b602485634e487b7160e01b81526041600452fd5b8380fd5b5080fd5b80fd5b839150346103465782600319360112610346578254818461023883610383565b8083529260019081811690811561030657506001146102aa575b506102629250949294038461034a565b815192839160208084528251928382860152825b84811061029457505050828201840152601f01601f19168101030190f35b8181018301518882018801528795508201610276565b8680528691507f290decd9548b62a8d60345a988386fc84ba6bc95484008f6362f93160ef3e5635b8483106102eb5750610262935050810160200186610252565b819350908160209254838589010152019101909184926102d2565b602093506102629592507fffffffffffffffffffffffffffffffffffffffffffffffffffffffffffffff0091501682840152151560051b82010186610252565b8280fd5b90601f601f19910116810190811067ffffffffffffffff82111761036d57604052565b634e487b7160e01b600052604160045260246000fd5b90600182811c921680156103b3575b602083101461039d57565b634e487b7160e01b600052602260045260246000fd5b91607f169161039256fea2646970667358221220814494fd9fe09ce2e7b8508794d13f42d0cecde596cf733d08a0dd79b72ebdbe64736f6c63430008140033",
  "linkReferences": {},
  "deployedLinkReferences": {}
}